:1000000000308A0015280000DE00030EDF00040E19
:10001000DD001B285D0E84005F0E8300DE0E5E0E89
:04002000090000349F
:06002A00FF238316900085
:1000300000308A00012983160C1C6B2883120C18CF
:10004000232883166B280C10D9308F0005308E00C2
:100050006400251E3528A608031D34280F30A50589
:100060008316051436288312A60383168312A51E51
:100070004A28A608031D492827080319A803A70B27
:100080004628A808031D4628A51225176430A60097
:100090004A28A603251F5A28A608031D5928831697
:1000A0000510831205100130A505C830A6002516DD
:1000B0005A28A603A51F6A28A608031D69288316C7
:1000C0000510831205100F30A505C830A6002516AF
:1000D0006A28A603831683120A2883018316FF2346
:1000E0008316900083120E290730990083169F0112
:1000F000FF30831285008316850096019501051453
:1001000085140515CE30810583129001D9308F00FA
:1001100005308E000C1083160C14831210140F2956
:10012000A5016430A60025161029851CAD28D930FC
:100130008F0005308E000C1083160C1483121014DF
:10014000251CAB286430A600A517A51BA928251ED1
:10015000AB28A528A528A514C028051DC028D9307E
:100160008F0005308E000C1083160C1483121014AF
:100170006430A6000E30A8001030A700A516251583
:100180002729A51CEF280B138B13851CDF28A51925
:10019000D828051DD728A5150A30A60025160B1747
:1001A0008B17251ED528D128D1280B138B13DE28B9
:1001B0000519DE28A5010A30A6002516EC28A51091
:1001C0000A30A600A51DE72825142517EC28251CB4
:1001D000EB282517EC2825160B178B17C1282C297F
:1001E000251D00290B138B138518A5120519FD2851
:1001F0000130A5050A30A60025160B178B17F0282D
:100200002C2984011F3083051F1383161F109F1094
:100210001F119F110730831299006D2874289028B0
:100220000B178B17251A1829251B1829051D1A29A4
:100230001229122983160514831210100C1083162C
:100240000C1001308312A505630000009528A51845
:0C025000C128251D2C29F028102963006E
:02400E00CC31B3
:00000001FF
;PIC12F675
